:100000000C9462000C948A000C948A000C948A0070
:100010000C948A000C948A000C948A000C948A0038
:100020000C948A000C948A000C948A000C948A0028
:100030000C948A000C94DF030C948A000C948A00C0
:100040000C9495030C948A000C948A000C948A00FA
:100050000C948A000C948A000C948A000C948A00F8
:100060000C948A000C948A000000000024002700F1
:100070002A0000000000250028002B0000000000DE
:1000800023002600290004040404040404040202DA
:100090000202020203030303030301020408102007
:1000A0004080010204081020010204081020000012
:1000B0000008000201000003040700000000000027
:1000C00000000B0611241FBECFEFD8E0DEBFCDBF6E
:1000D00011E0A0E0B1E0E0E2F1E102C005900D9294
:1000E000A635B107D9F721E0A6E5B1E001C01D9220
:1000F000A338B207E1F710E0C2E6D0E004C02197D0
:10010000FE010E948808C136D107C9F70E94060483
:100110000C948E080C940000AF92BF92CF92DF92A5
:10012000EF92FF920F931F93CF93DF936C017B01AC
:100130008B01040F151FEB015E01AE18BF08C0173D
:10014000D10759F06991D601ED91FC910190F081B0
:10015000E02DC6010995892B79F7C501DF91CF9173
:100160001F910F91FF90EF90DF90CF90BF90AF90D5
:100170000895833081F028F4813099F08230A9F01D
:1001800008958730A9F08830C9F08430B1F48091A7
:1001900080008F7D03C0809180008F7780938000E6
:1001A000089584B58F7784BD089584B58F7DFBCF86
:1001B0008091B0008F778093B00008958091B00057
:1001C0008F7DF9CFCF93DF93282F30E0F901E255EF
:1001D000FF4F8491F901E656FF4FD491F901EA5798
:1001E000FF4FC491CC23A1F081110E94B900EC2FE4
:1001F000F0E0EE0FFF1FE458FF4FA591B491EC9192
:10020000ED2381E090E009F480E0DF91CF91089543
:1002100080E090E0FACF1F93CF93DF93282F30E058
:10022000F901E255FF4F8491F901E656FF4FD49151
:10023000F901EA57FF4FC491CC23A9F0162F811181
:100240000E94B900EC2FF0E0EE0FFF1FEE58FF4FB9
:10025000A591B4918FB7F894EC91111108C0D09585
:10026000DE23DC938FBFDF91CF911F910895DE2BAA
:10027000F8CFCF93DF9390E0FC01E656FF4F249137
:100280008A579F4FFC0184918823C9F090E0880F22
:10029000991FFC01E859FF4FA591B491FC01EE585C
:1002A000FF4FC591D49161110DC09FB7F8948C9107
:1002B000209582238C938881282328839FBFDF91F8
:1002C000CF910895623051F49FB7F8943C91822FFA
:1002D000809583238C93E8812E2BEFCF8FB7F894F2
:1002E000EC912E2B2C938FBFEACF3FB7F8948091DF
:1002F0005B0190915C01A0915D01B0915E0126B51A
:10030000A89B05C02F3F19F00196A11DB11D3FBF4D
:10031000BA2FA92F982F8827BC01CD01620F711D1C
:10032000811D911D42E0660F771F881F991F4A9516
:10033000D1F70895089590E080E00895FC010190C0
:100340000020E9F73197AF01481B590BBC018BE640
:1003500091E00C948C008F929F92AF92BF920F937A
:100360001F93CF93DF93CDB7DEB7A1970FB6F89465
:10037000DEBF0FBECDBF19A2423008F44AE08E01A5
:100380000F5D1F4F842E912CB12CA12CA50194013F
:100390000E946608E62FB901CA01EA30F4F4E05D74
:1003A000D801EE938D01232B242B252B79F790E098
:1003B00080E0109719F0CD010E949E01A1960FB622
:1003C000F894DEBF0FBECDBFDF91CF911F910F918B
:1003D000BF90AF909F908F900895E95CE1CFCF934D
:1003E000DF93EC0160E08E810E940B0161E08E8161
:1003F0000E940B0160E08E810E940B018BE891E06E
:100400000197F1F7DF91CF910895CF92DF92EF92AC
:10041000FF920F931F93CF93DF936C017C0187E0D2
:10042000E80EF11CD0E0C0E0062F10E0B8010C2E61
:1004300002C0759567950A94E2F76170F7018191A2
:100440007F010E940B012196C430D10579F7C601C6
:10045000DF91CF911F910F91FF90EF90DF90CF90A0
:100460000C94EF01CF92DF92EF92FF920F931F93C4
:10047000CF93DF93EC01F62E642F8C810E940B0149
:100480008D818F3F19F060E00E940B010F2D10E06D
:100490008F8584FF25C06E0187E0C80ED11CF12C2A
:1004A000E12CB8010E2C02C0759567950A94E2F70D
:1004B0006170F60181916F010E940B01FFEFEF1A4D
:1004C000FF0A88E0E816F10461F7CE01DF91CF91D1
:1004D0001F910F91FF90EF90DF90CF900C94EF0160
:1004E000B80184E0759567958A95E1F7CE010E9481
:1004F00005026F2DCE01DF91CF911F910F91FF90DB
:10050000EF90DF90CF900C94050240E0682F8BE6CF
:1005100091E00C943202CF93DF93613029F09091F7
:100520007A01986090937A0160937E0110927F0126
:1005300090E49093800180938101805C809382019C
:1005400061E080916F010E943901809170018F3FBD
:1005500019F061E00E94390161E0809171010E940F
:100560003901CBE6D1E09E012B56314080917A01D2
:1005700084FD0BC084E090E021962817390744F4ED
:1005800061E08E810E943901EECF88E090E0F4CFE7
:100590008BE39DE00197F1F760E080916F010E948D
:1005A0000B0160E0809171010E940B01809170014C
:1005B0008F3F19F060E00E940B0180917A0184FD69
:1005C00039C063E08BE691E00E940502CBE4D6E4FB
:1005D000CE010197F1F763E08BE691E00E940502FE
:1005E0002197F1F763E08BE691E00E94050283E535
:1005F00092E00197F1F762E08BE691E00E9405023C
:1006000080917A0180620E94850284E080937B0160
:100610008CE00E94850281E00E9485028BE39FE1CD
:100620000197F1F782E080937C0186E0DF91CF9122
:100630000C94850280620E9485028BE496E4019707
:10064000F1F780917A0180620E94850283E592E051
:100650000197F1F780917A0180620E948502D0CFE4
:1006600090917E01691710F06FEF690FE62FF0E0AF
:10067000E559FE4F9489890F80680C94850241E00A
:100680000E94320281E090E00895CF92DF92EF92D3
:10069000FF926B017C0141E06DE28BE691E00E94EC
:1006A000320266277727CB016C197D098E099F09D5
:1006B0004AE00E94AB010196FF90EF90DF90CF904F
:1006C0000895CF93DF938091690190916A0101971A
:1006D000F9F4C0916301D09164012196D093640133
:1006E000C093630161E08EE00E943003BE01DD0F24
:1006F000880B990B97FF08C00E94450389E191E0A0
:10070000DF91CF910C949E014AE00E94AB01F6CF9D
:10071000DF91CF910895BC01990F880B990B97FD3C
:100720000C9445034AE00C94AB011F920F920FB654
:100730000F9211242F933F938F939F93AF93BF9367
:100740008091570190915801A0915901B0915A019F
:100750003091560123E0230F2D3758F50196A11D46
:10076000B11D209356018093570190935801A09397
:100770005901B0935A0180915B0190915C01A09165
:100780005D01B0915E010196A11DB11D80935B01D9
:1007900090935C01A0935D01B0935E01BF91AF9116
:1007A0009F918F913F912F910F900FBE0F901F90AF
:1007B000189526E8230F0296A11DB11DD2CF1F92D6
:1007C0000F920FB60F9211242F933F934F935F9385
:1007D0006F937F938F939F93AF93BF93EF93FF9309
:1007E000E0915F01F09160010995FF91EF91BF9158
:1007F000AF919F918F917F916F915F914F913F91B9
:100800002F910F900FBE0F901F901895789484B57C
:10081000826084BD84B5816084BD85B5826085BDFC
:1008200085B5816085BD80916E00816080936E008A
:10083000109281008091810082608093810080917C
:10084000810081608093810080918000816080932D
:1008500080008091B10084608093B1008091B000ED
:1008600081608093B00080917A00846080937A00E8
:1008700080917A00826080937A0080917A00816012
:1008800080937A0080917A00806880937A00109239
:10089000C10064E084E10E948B0260E084E00E9479
:1008A000390162E082E00E94390180E18093810099
:1008B0001092800088EA91E69093870080938600EA
:1008C00084E18093810081E693E0909360018093BE
:1008D0005F0181E080936F000E9485028BE39FE1BE
:1008E0000197F1F760E080E00E9430038CE091E036
:1008F0000E949E0161E080E00E9430038BE191E064
:100900000E949E0162E080E00E9430038AE291E052
:100910000E949E0163E080E00E9430038CE391E03E
:100920000E949E0196E0292E20E4322E00E010E085
:10093000C1E0D0E082E00E94E200892B21F4D09354
:100940006A01C09369018091690190916A010197E0
:1009500009F05FC084E00E94E2008130910501F55A
:100960002091670130916801232BD1F4E09065015B
:10097000F09066012FEFE21AF20AF0926601E0921F
:100980006501909368018093670160E08EE00E94AA
:100990003003C7010E948B0389E191E00E949E0110
:1009A00084E00E94E200892B51F4809167019091CC
:1009B0006801019721F410926801109267018091FB
:1009C0006301909164010A9721F5809165019091EE
:1009D0006601289E7001299EF00C1124F09262019C
:1009E000E092610110926A011092690162E08EE06A
:1009F0000E943003C7010E948B0389E191E00E94AD
:100A00009E0110926601109265011092640110928D
:100A1000630130927C0080917A00806480937A0038
:100A200080917A0086FDFCCF8091780060917900FA
:100A3000762F682F072E000C880B990B0E943F071A
:100A400020E030E040E85AE30E94F40720E030E480
:100A50004CE955E40E94F40720E030E040E251E424
:100A60000E949C066B017C014B015C0163E08EE0FF
:100A70000E943003A7019601C701B6010E946108D8
:100A8000882399F18AE491E00E949E0189E191E036
:100A90000E949E010E9475016B017C0184E6882EF4
:100AA000912CA12CB12C0E9475016C197D098E0925
:100AB0009F09683E734081059105A8F381E0881A7B
:100AC0009108A108B10828EEC20E23E0D21EE11C55
:100AD000F11C81149104A104B10429F70115110539
:100AE00009F428CF0E94000025CF26013701E894A1
:100AF00077F82FEF3FEF4FE75FE7C301B2010E94A6
:100B0000610881110DC02FEF3FEF4FE75FE7C30191
:100B1000B2010E94970618161CF48EE491E0B4CF3F
:100B20002FEF3FEF4FE75FE4C701B6010E94EF07E9
:100B300018161CF482E591E0A7CF2FEF3FEF4FE7A7
:100B40005FECC701B6010E94970687FDF3CF20E056
:100B500030E0A901C701B6010E94970687FF0CC0CB
:100B600041E06DE28BE691E00E94320246015701BE
:100B7000B7FAB094B7F8B0942AE037ED43EA5BE3F4
:100B8000C501B4010E942B064B015C010E940E07B7
:100B90006B017C010E943D079B01AC01C501B401C2
:100BA0000E942A064B015C014AE0C701B6010E947F
:100BB000AB0141E06EE28BE691E00E94320220E060
:100BC00030E040E251E4C501B4010E94F4074B015A
:100BD0005C010E940E076B01F12CE12C4AE0C70179
:100BE000B6010E94AB01C701B6010E943D079B01FF
:100BF000AC01C501B4010E942A0620E030E040E2C9
:100C000051E40E94F4070E940E0790E080E04AE061
:100C10000E94AB013BCFEBE6F1E01382128284E04D
:100C200091E0918380838DE084838FEF85838CE0D6
:100C300086838BE087838AE0808789E0818788E0EC
:100C400082871386148615861686178661E080E1F2
:100C50000C948B025058BB27AA270E9442060C9482
:100C6000B5070E94A70738F00E94AE0720F039F4BC
:100C70009F3F19F426F40C94A4070EF4E095E7FBCB
:100C80000C949E07E92F0E94C60758F3BA17620713
:100C900073078407950720F079F4A6F50C94E8070C
:100CA0000EF4E0950B2EBA2FA02D0B01B901900187
:100CB0000C01CA01A0011124FF27591B99F0593FCB
:100CC00050F4503E68F11A16F040A22F232F342F13
:100CD0004427585FF3CF469537952795A795F04061
:100CE0005395C9F77EF41F16BA0B620B730B840B76
:100CF000BAF09150A1F0FF0FBB1F661F771F881F2E
:100D0000C2F70EC0BA0F621F731F841F48F4879585
:100D100077956795B795F7959E3F08F0B0CF939577
:100D2000880F08F09927EE0F9795879508950E94F0
:100D30007A0708F481E008950E94B0060C94B50784
:100D40000E94AE0758F00E94A70740F029F45F3FC9
:100D500029F00C949E0751110C94E9070C94A407F8
:100D60000E94C60768F39923B1F3552391F3951BAD
:100D7000550BBB27AA2762177307840738F09F5FBC
:100D80005F4F220F331F441FAA1FA9F335D00E2E29
:100D90003AF0E0E832D091505040E695001CCAF796
:100DA0002BD0FE2F29D0660F771F881FBB1F261759
:100DB00037074807AB07B0E809F0BB0B802DBF0130
:100DC000FF2793585F4F3AF09E3F510578F00C94FF
:100DD0009E070C94E9075F3FE4F3983ED4F38695B1
:100DE00077956795B795F7959F5FC9F7880F911D20
:100DF0009695879597F90895E1E0660F771F881F0C
:100E0000BB1F621773078407BA0720F0621B730BBE
:100E1000840BBA0BEE1F88F7E09508950E94CE0769
:100E200088F09F5798F0B92F9927B751B0F0E1F0AB
:100E3000660F771F881F991F1AF0BA95C9F714C05B
:100E4000B13091F00E94E807B1E008950C94E807F2
:100E5000672F782F8827B85F39F0B93FCCF3869594
:100E600077956795B395D9F73EF4909580957095F1
:100E700061957F4F8F4F9F4F0895E89409C097FB6E
:100E80003EF490958095709561957F4F8F4F9F4F61
:100E90009923A9F0F92F96E9BB279395F6958795A5
:100EA00077956795B795F111F8CFFAF4BB0F11F468
:100EB00060FF1BC06F5F7F4F8F4F9F4F16C088230F
:100EC00011F096E911C0772321F09EE8872F762F45
:100ED00005C0662371F096E8862F70E060E02AF086
:100EE0009A95660F771F881FDAF7880F9695879572
:100EF00097F90895990F0008550FAA0BE0E8FEEF47
:100F000016161706E807F907C0F012161306E407CD
:100F1000F50798F0621B730B840B950B39F40A26C6
:100F200061F0232B242B252B21F408950A2609F4A4
:100F3000A140A6958FEF811D811D089597F99F67A8
:100F400080E870E060E008959FEF80EC0895002451
:100F50000A941616170618060906089500240A941E
:100F600012161306140605060895092E0394000CA4
:100F700011F4882352F0BB0F40F4BF2B11F460FF33
:100F800004C06F5F7F4F8F4F9F4F089557FD90585C
:100F9000440F551F59F05F3F71F04795880F97FB3D
:100FA000991F61F09F3F79F08795089512161306F7
:100FB0001406551FF2CF4695F1DF08C01616170626
:100FC0001806991FF1CF869571056105089408955B
:100FD000E894BB2766277727CB0197F908950E94ED
:100FE0007A0708F48FEF08950E9407080C94B5075C
:100FF0000E94A70738F00E94AE0720F0952311F059
:101000000C949E070C94A40711240C94E9070E94E9
:10101000C60770F3959FC1F3950F50E0551F629F6F
:10102000F001729FBB27F00DB11D639FAA27F00D41
:10103000B11DAA1F649F6627B00DA11D661F829F68
:101040002227B00DA11D621F739FB00DA11D621F4D
:10105000839FA00D611D221F749F3327A00D611D6A
:10106000231F849F600D211D822F762F6A2F11244C
:101070009F5750409AF0F1F088234AF0EE0FFF1F7F
:10108000BB1F661F771F881F91505040A9F79E3FD6
:10109000510580F00C949E070C94E9075F3FE4F340
:1010A000983ED4F3869577956795B795F795E7952C
:1010B0009F5FC1F7FE2B880F911D9695879597F935
:1010C00008950E947A07880B990B0895A1E21A2EC1
:1010D000AA1BBB1BFD010DC0AA1FBB1FEE1FFF1FDC
:1010E000A217B307E407F50720F0A21BB30BE40B2C
:1010F000F50B661F771F881F991F1A9469F7609573
:101100007095809590959B01AC01BD01CF0108952C
:10111000EE0FFF1F0590F491E02D0994F894FFCF96
:10112000000000003F038C009B019A01437572721E
:10113000656E7420484220203A200054696D652075
:10114000696E20536563203A200048422070657222
:10115000204D696E20203A20302E3000426F647995
:101160002054656D7020203A20006E616E00696E1B
:0611700066006F766600C8
:00000001FF
